{
  "_format": "hh-sol-artifact-1",
  "contractName": "Coin_USDT",
  "sourceName": "contracts/Coin_USDT.sol",
  "abi": [
    {
      "inputs": [],
      "stateMutability": "nonpayable",
      "type": "constructor"
    },
    {
      "anonymous": false,
      "inputs": [
        {
          "indexed": true,
          "internalType": "address",
          "name": "owner",
          "type": "address"
        },
        {
          "indexed": true,
          "internalType": "address",
          "name": "spender",
          "type": "address"
        },
        {
          "indexed": false,
          "internalType": "uint256",
          "name": "value",
          "type": "uint256"
        }
      ],
      "name": "Approval",
      "type": "event"
    },
    {
      "anonymous": false,
      "inputs": [
        {
          "indexed": false,
          "internalType": "address",
          "name": "mintBy",
          "type": "address"
        }
      ],
      "name": "Mint",
      "type": "event"
    },
    {
      "anonymous": false,
      "inputs": [
        {
          "indexed": true,
          "internalType": "address",
          "name": "from",
          "type": "address"
        },
        {
          "indexed": true,
          "internalType": "address",
          "name": "to",
          "type": "address"
        },
        {
          "indexed": false,
          "internalType": "uint256",
          "name": "value",
          "type": "uint256"
        }
      ],
      "name": "Transfer",
      "type": "event"
    },
    {
      "inputs": [
        {
          "internalType": "address",
          "name": "owner",
          "type": "address"
        },
        {
          "internalType": "address",
          "name": "spender",
          "type": "address"
        }
      ],
      "name": "allowance",
      "outputs": [
        {
          "internalType": "uint256",
          "name": "",
          "type": "uint256"
        }
      ],
      "stateMutability": "view",
      "type": "function"
    },
    {
      "inputs": [
        {
          "internalType": "address",
          "name": "spender",
          "type": "address"
        },
        {
          "internalType": "uint256",
          "name": "amount",
          "type": "uint256"
        }
      ],
      "name": "approve",
      "outputs": [
        {
          "internalType": "bool",
          "name": "",
          "type": "bool"
        }
      ],
      "stateMutability": "nonpayable",
      "type": "function"
    },
    {
      "inputs": [
        {
          "internalType": "address",
          "name": "account",
          "type": "address"
        }
      ],
      "name": "balanceOf",
      "outputs": [
        {
          "internalType": "uint256",
          "name": "",
          "type": "uint256"
        }
      ],
      "stateMutability": "view",
      "type": "function"
    },
    {
      "inputs": [
        {
          "internalType": "address",
          "name": "_newOwner",
          "type": "address"
        }
      ],
      "name": "changeOwner",
      "outputs": [],
      "stateMutability": "nonpayable",
      "type": "function"
    },
    {
      "inputs": [],
      "name": "decimals",
      "outputs": [
        {
          "internalType": "uint8",
          "name": "",
          "type": "uint8"
        }
      ],
      "stateMutability": "view",
      "type": "function"
    },
    {
      "inputs": [
        {
          "internalType": "address",
          "name": "spender",
          "type": "address"
        },
        {
          "internalType": "uint256",
          "name": "subtractedValue",
          "type": "uint256"
        }
      ],
      "name": "decreaseAllowance",
      "outputs": [
        {
          "internalType": "bool",
          "name": "",
          "type": "bool"
        }
      ],
      "stateMutability": "nonpayable",
      "type": "function"
    },
    {
      "inputs": [
        {
          "internalType": "address",
          "name": "spender",
          "type": "address"
        },
        {
          "internalType": "uint256",
          "name": "addedValue",
          "type": "uint256"
        }
      ],
      "name": "increaseAllowance",
      "outputs": [
        {
          "internalType": "bool",
          "name": "",
          "type": "bool"
        }
      ],
      "stateMutability": "nonpayable",
      "type": "function"
    },
    {
      "inputs": [
        {
          "internalType": "uint256",
          "name": "_amt",
          "type": "uint256"
        }
      ],
      "name": "mint",
      "outputs": [],
      "stateMutability": "nonpayable",
      "type": "function"
    },
    {
      "inputs": [],
      "name": "name",
      "outputs": [
        {
          "internalType": "string",
          "name": "",
          "type": "string"
        }
      ],
      "stateMutability": "view",
      "type": "function"
    },
    {
      "inputs": [
        {
          "internalType": "uint256",
          "name": "_amount",
          "type": "uint256"
        }
      ],
      "name": "ownerMint",
      "outputs": [],
      "stateMutability": "nonpayable",
      "type": "function"
    },
    {
      "inputs": [],
      "name": "symbol",
      "outputs": [
        {
          "internalType": "string",
          "name": "",
          "type": "string"
        }
      ],
      "stateMutability": "view",
      "type": "function"
    },
    {
      "inputs": [],
      "name": "totalSupply",
      "outputs": [
        {
          "internalType": "uint256",
          "name": "",
          "type": "uint256"
        }
      ],
      "stateMutability": "view",
      "type": "function"
    },
    {
      "inputs": [
        {
          "internalType": "address",
          "name": "recipient",
          "type": "address"
        },
        {
          "internalType": "uint256",
          "name": "amount",
          "type": "uint256"
        }
      ],
      "name": "transfer",
      "outputs": [
        {
          "internalType": "bool",
          "name": "",
          "type": "bool"
        }
      ],
      "stateMutability": "nonpayable",
      "type": "function"
    },
    {
      "inputs": [
        {
          "internalType": "address",
          "name": "sender",
          "type": "address"
        },
        {
          "internalType": "address",
          "name": "recipient",
          "type": "address"
        },
        {
          "internalType": "uint256",
          "name": "amount",
          "type": "uint256"
        }
      ],
      "name": "transferFrom",
      "outputs": [
        {
          "internalType": "bool",
          "name": "",
          "type": "bool"
        }
      ],
      "stateMutability": "nonpayable",
      "type": "function"
    }
  ],
  "bytecode": "0x60806040523480156200001157600080fd5b506040518060400160405280600981526020017f46616b65205553445400000000000000000000000000000000000000000000008152506040518060400160405280600481526020017f555344540000000000000000000000000000000000000000000000000000000081525081600390805190602001906200009692919062000292565b508060049080519060200190620000af92919062000292565b505050620000c8336305f5e1006200010f60201b60201c565b33600560006101000a81548173ffffffffffffffffffffffffffffffffffffffff021916908373ffffffffffffffffffffffffffffffffffffffff160217905550620004ee565b600073ffffffffffffffffffffffffffffffffffffffff168273ffffffffffffffffffffffffffffffffffffffff16141562000182576040517f08c379a00000000000000000000000000000000000000000000000000000000081526004016200017990620003a3565b60405180910390fd5b62000196600083836200028860201b60201c565b8060026000828254620001aa9190620003fe565b92505081905550806000808473ffffffffffffffffffffffffffffffffffffffff1673ffffffffffffffffffffffffffffffffffffffff1681526020019081526020016000206000828254620002019190620003fe565b925050819055508173ffffffffffffffffffffffffffffffffffffffff16600073ffffffffffffffffffffffffffffffffffffffff167fddf252ad1be2c89b69c2b068fc378daa952ba7f163c4a11628f55a4df523b3ef836040516200026891906200046c565b60405180910390a362000284600083836200028d60201b60201c565b5050565b505050565b505050565b828054620002a090620004b8565b90600052602060002090601f016020900481019282620002c4576000855562000310565b82601f10620002df57805160ff191683800117855562000310565b8280016001018555821562000310579182015b828111156200030f578251825591602001919060010190620002f2565b5b5090506200031f919062000323565b5090565b5b808211156200033e57600081600090555060010162000324565b5090565b600082825260208201905092915050565b7f45524332303a206d696e7420746f20746865207a65726f206164647265737300600082015250565b60006200038b601f8362000342565b9150620003988262000353565b602082019050919050565b60006020820190508181036000830152620003be816200037c565b9050919050565b6000819050919050565b7f4e487b7100000000000000000000000000000000000000000000000000000000600052601160045260246000fd5b60006200040b82620003c5565b91506200041883620003c5565b9250827fffffffffffffffffffffffffffffffffffffffffffffffffffffffffffffffff0382111562000450576200044f620003cf565b5b828201905092915050565b6200046681620003c5565b82525050565b60006020820190506200048360008301846200045b565b92915050565b7f4e487b7100000000000000000000000000000000000000000000000000000000600052602260045260246000fd5b60006002820490506001821680620004d157607f821691505b60208210811415620004e857620004e762000489565b5b50919050565b61195c80620004fe6000396000f3fe608060405234801561001057600080fd5b50600436106100ea5760003560e01c806395d89b411161008c578063a6f9dae111610066578063a6f9dae114610273578063a9059cbb1461028f578063dd62ed3e146102bf578063f19e75d4146102ef576100ea565b806395d89b4114610209578063a0712d6814610227578063a457c2d714610243576100ea565b806323b872dd116100c857806323b872dd1461015b578063313ce5671461018b57806339509351146101a957806370a08231146101d9576100ea565b806306fdde03146100ef578063095ea7b31461010d57806318160ddd1461013d575b600080fd5b6100f761030b565b604051610104919061102f565b60405180910390f35b610127600480360381019061012291906110ea565b61039d565b6040516101349190611145565b60405180910390f35b6101456103bb565b604051610152919061116f565b60405180910390f35b6101756004803603810190610170919061118a565b6103c5565b6040516101829190611145565b60405180910390f35b6101936104bd565b6040516101a091906111f9565b60405180910390f35b6101c360048036038101906101be91906110ea565b6104c6565b6040516101d09190611145565b60405180910390f35b6101f360048036038101906101ee9190611214565b610572565b604051610200919061116f565b60405180910390f35b6102116105ba565b60405161021e919061102f565b60405180910390f35b610241600480360381019061023c9190611241565b61064c565b005b61025d600480360381019061025891906110ea565b610743565b60405161026a9190611145565b60405180910390f35b61028d60048036038101906102889190611214565b61082e565b005b6102a960048036038101906102a491906110ea565b6108cc565b6040516102b69190611145565b60405180910390f35b6102d960048036038101906102d4919061126e565b6108ea565b6040516102e6919061116f565b60405180910390f35b61030960048036038101906103049190611241565b610971565b005b60606003805461031a906112dd565b80601f0160208091040260200160405190810160405280929190818152602001828054610346906112dd565b80156103935780601f1061036857610100808354040283529160200191610393565b820191906000526020600020905b81548152906001019060200180831161037657829003601f168201915b5050505050905090565b60006103b16103aa6109d8565b84846109e0565b6001905092915050565b6000600254905090565b60006103d2848484610bab565b6000600160008673ffffffffffffffffffffffffffffffffffffffff1673ffffffffffffffffffffffffffffffffffffffff168152602001908152602001600020600061041d6109d8565b73ffffffffffffffffffffffffffffffffffffffff1673ffffffffffffffffffffffffffffffffffffffff1681526020019081526020016000205490508281101561049d576040517f08c379a000000000000000000000000000000000000000000000000000000000815260040161049490611381565b60405180910390fd5b6104b1856104a96109d8565b8584036109e0565b60019150509392505050565b60006006905090565b60006105686104d36109d8565b8484600160006104e16109d8565b73ffffffffffffffffffffffffffffffffffffffff1673ffffffffffffffffffffffffffffffffffffffff16815260200190815260200160002060008873ffffffffffffffffffffffffffffffffffffffff1673ffffffffffffffffffffffffffffffffffffffff1681526020019081526020016000205461056391906113d0565b6109e0565b6001905092915050565b60008060008373ffffffffffffffffffffffffffffffffffffffff1673ffffffffffffffffffffffffffffffffffffffff168152602001908152602001600020549050919050565b6060600480546105c9906112dd565b80601f01602080910402602001604051908101604052809291908181526020018280546105f5906112dd565b80156106425780601f1061061757610100808354040283529160200191610642565b820191906000526020600020905b81548152906001019060200180831161062557829003601f168201915b5050505050905090565b630bebc2008161065a6103bb565b61066491906113d0565b11156106a5576040517f08c379a000000000000000000000000000000000000000000000000000000000815260040161069c90611472565b60405180910390fd5b6308583b00816106b433610572565b6106be91906113d0565b11156106ff576040517f08c379a00000000000000000000000000000000000000000000000000000000081526004016106f690611504565b60405180910390fd5b6107093382610e2c565b7f3c3284d117c92d0b1699230960384e794dcba184cc48ff114fe4fed20c9b0565336040516107389190611533565b60405180910390a150565b600080600160006107526109d8565b73ffffffffffffffffffffffffffffffffffffffff1673ffffffffffffffffffffffffffffffffffffffff16815260200190815260200160002060008573ffffffffffffffffffffffffffffffffffffffff1673ffffffffffffffffffffffffffffffffffffffff1681526020019081526020016000205490508281101561080f576040517f08c379a0000000000000000000000000000000000000000000000000000000008152600401610806906115c0565b60405180910390fd5b61082361081a6109d8565b858584036109e0565b600191505092915050565b600560009054906101000a900473ffffffffffffffffffffffffffffffffffffffff1673ffffffffffffffffffffffffffffffffffffffff163373ffffffffffffffffffffffffffffffffffffffff161461088857600080fd5b80600560006101000a81548173ffffffffffffffffffffffffffffffffffffffff021916908373ffffffffffffffffffffffffffffffffffffffff16021790555050565b60006108e06108d96109d8565b8484610bab565b6001905092915050565b6000600160008473ffffffffffffffffffffffffffffffffffffffff1673ffffffffffffffffffffffffffffffffffffffff16815260200190815260200160002060008373ffffffffffffffffffffffffffffffffffffffff1673ffffffffffffffffffffffffffffffffffffffff16815260200190815260200160002054905092915050565b600560009054906101000a900473ffffffffffffffffffffffffffffffffffffffff1673ffffffffffffffffffffffffffffffffffffffff163373ffffffffffffffffffffffffffffffffffffffff16146109cb57600080fd5b6109d53382610e2c565b50565b600033905090565b600073ffffffffffffffffffffffffffffffffffffffff168373ffffffffffffffffffffffffffffffffffffffff161415610a50576040517f08c379a0000000000000000000000000000000000000000000000000000000008152600401610a4790611652565b60405180910390fd5b600073ffffffffffffffffffffffffffffffffffffffff168273ffffffffffffffffffffffffffffffffffffffff161415610ac0576040517f08c379a0000000000000000000000000000000000000000000000000000000008152600401610ab7906116e4565b60405180910390fd5b80600160008573ffffffffffffffffffffffffffffffffffffffff1673ffffffffffffffffffffffffffffffffffffffff16815260200190815260200160002060008473ffffffffffffffffffffffffffffffffffffffff1673ffffffffffffffffffffffffffffffffffffffff168152602001908152602001600020819055508173ffffffffffffffffffffffffffffffffffffffff168373ffffffffffffffffffffffffffffffffffffffff167f8c5be1e5ebec7d5bd14f71427d1e84f3dd0314c0f7b2291e5b200ac8c7c3b92583604051610b9e919061116f565b60405180910390a3505050565b600073ffffffffffffffffffffffffffffffffffffffff168373ffffffffffffffffffffffffffffffffffffffff161415610c1b576040517f08c379a0000000000000000000000000000000000000000000000000000000008152600401610c1290611776565b60405180910390fd5b600073ffffffffffffffffffffffffffffffffffffffff168273ffffffffffffffffffffffffffffffffffffffff161415610c8b576040517f08c379a0000000000000000000000000000000000000000000000000000000008152600401610c8290611808565b60405180910390fd5b610c96838383610f8c565b60008060008573ffffffffffffffffffffffffffffffffffffffff1673ffffffffffffffffffffffffffffffffffffffff16815260200190815260200160002054905081811015610d1c576040517f08c379a0000000000000000000000000000000000000000000000000000000008152600401610d139061189a565b60405180910390fd5b8181036000808673ffffffffffffffffffffffffffffffffffffffff1673ffffffffffffffffffffffffffffffffffffffff16815260200190815260200160002081905550816000808573ffffffffffffffffffffffffffffffffffffffff1673ffffffffffffffffffffffffffffffffffffffff1681526020019081526020016000206000828254610daf91906113d0565b925050819055508273ffffffffffffffffffffffffffffffffffffffff168473ffffffffffffffffffffffffffffffffffffffff167fddf252ad1be2c89b69c2b068fc378daa952ba7f163c4a11628f55a4df523b3ef84604051610e13919061116f565b60405180910390a3610e26848484610f91565b50505050565b600073ffffffffffffffffffffffffffffffffffffffff168273ffffffffffffffffffffffffffffffffffffffff161415610e9c576040517f08c379a0000000000000000000000000000000000000000000000000000000008152600401610e9390611906565b60405180910390fd5b610ea860008383610f8c565b8060026000828254610eba91906113d0565b92505081905550806000808473ffffffffffffffffffffffffffffffffffffffff1673ffffffffffffffffffffffffffffffffffffffff1681526020019081526020016000206000828254610f0f91906113d0565b925050819055508173ffffffffffffffffffffffffffffffffffffffff16600073ffffffffffffffffffffffffffffffffffffffff167fddf252ad1be2c89b69c2b068fc378daa952ba7f163c4a11628f55a4df523b3ef83604051610f74919061116f565b60405180910390a3610f8860008383610f91565b5050565b505050565b505050565b600081519050919050565b600082825260208201905092915050565b60005b83811015610fd0578082015181840152602081019050610fb5565b83811115610fdf576000848401525b50505050565b6000601f19601f8301169050919050565b600061100182610f96565b61100b8185610fa1565b935061101b818560208601610fb2565b61102481610fe5565b840191505092915050565b600060208201905081810360008301526110498184610ff6565b905092915050565b600080fd5b600073ffffffffffffffffffffffffffffffffffffffff82169050919050565b600061108182611056565b9050919050565b61109181611076565b811461109c57600080fd5b50565b6000813590506110ae81611088565b92915050565b6000819050919050565b6110c7816110b4565b81146110d257600080fd5b50565b6000813590506110e4816110be565b92915050565b6000806040838503121561110157611100611051565b5b600061110f8582860161109f565b9250506020611120858286016110d5565b9150509250929050565b60008115159050919050565b61113f8161112a565b82525050565b600060208201905061115a6000830184611136565b92915050565b611169816110b4565b82525050565b60006020820190506111846000830184611160565b92915050565b6000806000606084860312156111a3576111a2611051565b5b60006111b18682870161109f565b93505060206111c28682870161109f565b92505060406111d3868287016110d5565b9150509250925092565b600060ff82169050919050565b6111f3816111dd565b82525050565b600060208201905061120e60008301846111ea565b92915050565b60006020828403121561122a57611229611051565b5b60006112388482850161109f565b91505092915050565b60006020828403121561125757611256611051565b5b6000611265848285016110d5565b91505092915050565b6000806040838503121561128557611284611051565b5b60006112938582860161109f565b92505060206112a48582860161109f565b9150509250929050565b7f4e487b7100000000000000000000000000000000000000000000000000000000600052602260045260246000fd5b600060028204905060018216806112f557607f821691505b60208210811415611309576113086112ae565b5b50919050565b7f45524332303a207472616e7366657220616d6f756e742065786365656473206160008201527f6c6c6f77616e6365000000000000000000000000000000000000000000000000602082015250565b600061136b602883610fa1565b91506113768261130f565b604082019050919050565b6000602082019050818103600083015261139a8161135e565b9050919050565b7f4e487b7100000000000000000000000000000000000000000000000000000000600052601160045260246000fd5b60006113db826110b4565b91506113e6836110b4565b9250827fffffffffffffffffffffffffffffffffffffffffffffffffffffffffffffffff0382111561141b5761141a6113a1565b5b828201905092915050565b7f457863656564656420546f74616c20537570706c790000000000000000000000600082015250565b600061145c601583610fa1565b915061146782611426565b602082019050919050565b6000602082019050818103600083015261148b8161144f565b9050919050565b7f457863656564656420496e646976696475616c20537570706c7920436f6e737460008201527f7261696e74730000000000000000000000000000000000000000000000000000602082015250565b60006114ee602683610fa1565b91506114f982611492565b604082019050919050565b6000602082019050818103600083015261151d816114e1565b9050919050565b61152d81611076565b82525050565b60006020820190506115486000830184611524565b92915050565b7f45524332303a2064656372656173656420616c6c6f77616e63652062656c6f7760008201527f207a65726f000000000000000000000000000000000000000000000000000000602082015250565b60006115aa602583610fa1565b91506115b58261154e565b604082019050919050565b600060208201905081810360008301526115d98161159d565b9050919050565b7f45524332303a20617070726f76652066726f6d20746865207a65726f2061646460008201527f7265737300000000000000000000000000000000000000000000000000000000602082015250565b600061163c602483610fa1565b9150611647826115e0565b604082019050919050565b6000602082019050818103600083015261166b8161162f565b9050919050565b7f45524332303a20617070726f766520746f20746865207a65726f20616464726560008201527f7373000000000000000000000000000000000000000000000000000000000000602082015250565b60006116ce602283610fa1565b91506116d982611672565b604082019050919050565b600060208201905081810360008301526116fd816116c1565b9050919050565b7f45524332303a207472616e736665722066726f6d20746865207a65726f20616460008201527f6472657373000000000000000000000000000000000000000000000000000000602082015250565b6000611760602583610fa1565b915061176b82611704565b604082019050919050565b6000602082019050818103600083015261178f81611753565b9050919050565b7f45524332303a207472616e7366657220746f20746865207a65726f206164647260008201527f6573730000000000000000000000000000000000000000000000000000000000602082015250565b60006117f2602383610fa1565b91506117fd82611796565b604082019050919050565b60006020820190508181036000830152611821816117e5565b9050919050565b7f45524332303a207472616e7366657220616d6f756e742065786365656473206260008201527f616c616e63650000000000000000000000000000000000000000000000000000602082015250565b6000611884602683610fa1565b915061188f82611828565b604082019050919050565b600060208201905081810360008301526118b381611877565b9050919050565b7f45524332303a206d696e7420746f20746865207a65726f206164647265737300600082015250565b60006118f0601f83610fa1565b91506118fb826118ba565b602082019050919050565b6000602082019050818103600083015261191f816118e3565b905091905056fea264697066735822122012f8b6ceb595c1c1b3ed49403df55d5df79d5c05a2b8e615344f2ffe4f4a4f6e64736f6c63430008090033",
  "linkReferences": {},
  "deployedLinkReferences": {}
}