{
  "_format": "hh-sol-artifact-1",
  "contractName": "Coin_RREC",
  "sourceName": "contracts/Coin_RREC.sol",
  "abi": [
    {
      "inputs": [],
      "stateMutability": "nonpayable",
      "type": "constructor"
    },
    {
      "anonymous": false,
      "inputs": [
        {
          "indexed": true,
          "internalType": "address",
          "name": "owner",
          "type": "address"
        },
        {
          "indexed": true,
          "internalType": "address",
          "name": "spender",
          "type": "address"
        },
        {
          "indexed": false,
          "internalType": "uint256",
          "name": "value",
          "type": "uint256"
        }
      ],
      "name": "Approval",
      "type": "event"
    },
    {
      "anonymous": false,
      "inputs": [
        {
          "indexed": false,
          "internalType": "address",
          "name": "mintBy",
          "type": "address"
        }
      ],
      "name": "Mint",
      "type": "event"
    },
    {
      "anonymous": false,
      "inputs": [
        {
          "indexed": true,
          "internalType": "address",
          "name": "from",
          "type": "address"
        },
        {
          "indexed": true,
          "internalType": "address",
          "name": "to",
          "type": "address"
        },
        {
          "indexed": false,
          "internalType": "uint256",
          "name": "value",
          "type": "uint256"
        }
      ],
      "name": "Transfer",
      "type": "event"
    },
    {
      "inputs": [],
      "name": "USDT_Address",
      "outputs": [
        {
          "internalType": "address",
          "name": "",
          "type": "address"
        }
      ],
      "stateMutability": "view",
      "type": "function"
    },
    {
      "inputs": [
        {
          "internalType": "address",
          "name": "owner",
          "type": "address"
        },
        {
          "internalType": "address",
          "name": "spender",
          "type": "address"
        }
      ],
      "name": "allowance",
      "outputs": [
        {
          "internalType": "uint256",
          "name": "",
          "type": "uint256"
        }
      ],
      "stateMutability": "view",
      "type": "function"
    },
    {
      "inputs": [
        {
          "internalType": "address",
          "name": "spender",
          "type": "address"
        },
        {
          "internalType": "uint256",
          "name": "amount",
          "type": "uint256"
        }
      ],
      "name": "approve",
      "outputs": [
        {
          "internalType": "bool",
          "name": "",
          "type": "bool"
        }
      ],
      "stateMutability": "nonpayable",
      "type": "function"
    },
    {
      "inputs": [
        {
          "internalType": "address",
          "name": "account",
          "type": "address"
        }
      ],
      "name": "balanceOf",
      "outputs": [
        {
          "internalType": "uint256",
          "name": "",
          "type": "uint256"
        }
      ],
      "stateMutability": "view",
      "type": "function"
    },
    {
      "inputs": [
        {
          "internalType": "address",
          "name": "_newOwner",
          "type": "address"
        }
      ],
      "name": "changeOwner",
      "outputs": [],
      "stateMutability": "nonpayable",
      "type": "function"
    },
    {
      "inputs": [],
      "name": "decimals",
      "outputs": [
        {
          "internalType": "uint8",
          "name": "",
          "type": "uint8"
        }
      ],
      "stateMutability": "view",
      "type": "function"
    },
    {
      "inputs": [
        {
          "internalType": "address",
          "name": "spender",
          "type": "address"
        },
        {
          "internalType": "uint256",
          "name": "subtractedValue",
          "type": "uint256"
        }
      ],
      "name": "decreaseAllowance",
      "outputs": [
        {
          "internalType": "bool",
          "name": "",
          "type": "bool"
        }
      ],
      "stateMutability": "nonpayable",
      "type": "function"
    },
    {
      "inputs": [
        {
          "internalType": "address",
          "name": "spender",
          "type": "address"
        },
        {
          "internalType": "uint256",
          "name": "addedValue",
          "type": "uint256"
        }
      ],
      "name": "increaseAllowance",
      "outputs": [
        {
          "internalType": "bool",
          "name": "",
          "type": "bool"
        }
      ],
      "stateMutability": "nonpayable",
      "type": "function"
    },
    {
      "inputs": [
        {
          "internalType": "uint256",
          "name": "_amt",
          "type": "uint256"
        }
      ],
      "name": "mint",
      "outputs": [],
      "stateMutability": "nonpayable",
      "type": "function"
    },
    {
      "inputs": [],
      "name": "name",
      "outputs": [
        {
          "internalType": "string",
          "name": "",
          "type": "string"
        }
      ],
      "stateMutability": "view",
      "type": "function"
    },
    {
      "inputs": [
        {
          "internalType": "uint256",
          "name": "_amount",
          "type": "uint256"
        }
      ],
      "name": "ownerMint",
      "outputs": [],
      "stateMutability": "nonpayable",
      "type": "function"
    },
    {
      "inputs": [],
      "name": "symbol",
      "outputs": [
        {
          "internalType": "string",
          "name": "",
          "type": "string"
        }
      ],
      "stateMutability": "view",
      "type": "function"
    },
    {
      "inputs": [],
      "name": "totalSupply",
      "outputs": [
        {
          "internalType": "uint256",
          "name": "",
          "type": "uint256"
        }
      ],
      "stateMutability": "view",
      "type": "function"
    },
    {
      "inputs": [
        {
          "internalType": "address",
          "name": "recipient",
          "type": "address"
        },
        {
          "internalType": "uint256",
          "name": "amount",
          "type": "uint256"
        }
      ],
      "name": "transfer",
      "outputs": [
        {
          "internalType": "bool",
          "name": "",
          "type": "bool"
        }
      ],
      "stateMutability": "nonpayable",
      "type": "function"
    },
    {
      "inputs": [
        {
          "internalType": "address",
          "name": "sender",
          "type": "address"
        },
        {
          "internalType": "address",
          "name": "recipient",
          "type": "address"
        },
        {
          "internalType": "uint256",
          "name": "amount",
          "type": "uint256"
        }
      ],
      "name": "transferFrom",
      "outputs": [
        {
          "internalType": "bool",
          "name": "",
          "type": "bool"
        }
      ],
      "stateMutability": "nonpayable",
      "type": "function"
    },
    {
      "inputs": [
        {
          "internalType": "uint256",
          "name": "_amount",
          "type": "uint256"
        }
      ],
      "name": "withdraw_USDT",
      "outputs": [],
      "stateMutability": "nonpayable",
      "type": "function"
    }
  ],
  "bytecode": "0x60806040523480156200001157600080fd5b5060405180606001604052806021815260200162001dc8602191396040518060400160405280600481526020017f525245430000000000000000000000000000000000000000000000000000000081525081600390805190602001906200007a92919062000132565b5080600490805190602001906200009392919062000132565b50505033600560006101000a81548173ffffffffffffffffffffffffffffffffffffffff021916908373ffffffffffffffffffffffffffffffffffffffff16021790555073bc44680b435ee19df43c6ea7eb73f61cd837f20c600660006101000a81548173ffffffffffffffffffffffffffffffffffffffff021916908373ffffffffffffffffffffffffffffffffffffffff16021790555062000247565b828054620001409062000211565b90600052602060002090601f016020900481019282620001645760008555620001b0565b82601f106200017f57805160ff1916838001178555620001b0565b82800160010185558215620001b0579182015b82811115620001af57825182559160200191906001019062000192565b5b509050620001bf9190620001c3565b5090565b5b80821115620001de576000816000905550600101620001c4565b5090565b7f4e487b7100000000000000000000000000000000000000000000000000000000600052602260045260246000fd5b600060028204905060018216806200022a57607f821691505b60208210811415620002415762000240620001e2565b5b50919050565b611b7180620002576000396000f3fe608060405234801561001057600080fd5b50600436106101005760003560e01c8063a0712d6811610097578063b3c809f811610066578063b3c809f8146102d5578063dd62ed3e146102f1578063e654210b14610321578063f19e75d41461033f57610100565b8063a0712d681461023d578063a457c2d714610259578063a6f9dae114610289578063a9059cbb146102a557610100565b8063313ce567116100d3578063313ce567146101a157806339509351146101bf57806370a08231146101ef57806395d89b411461021f57610100565b806306fdde0314610105578063095ea7b31461012357806318160ddd1461015357806323b872dd14610171575b600080fd5b61010d61035b565b60405161011a91906111cf565b60405180910390f35b61013d6004803603810190610138919061128a565b6103ed565b60405161014a91906112e5565b60405180910390f35b61015b61040b565b604051610168919061130f565b60405180910390f35b61018b6004803603810190610186919061132a565b610415565b60405161019891906112e5565b60405180910390f35b6101a961050d565b6040516101b69190611399565b60405180910390f35b6101d960048036038101906101d4919061128a565b610516565b6040516101e691906112e5565b60405180910390f35b610209600480360381019061020491906113b4565b6105c2565b604051610216919061130f565b60405180910390f35b61022761060a565b60405161023491906111cf565b60405180910390f35b610257600480360381019061025291906113e1565b61069c565b005b610273600480360381019061026e919061128a565b6107b0565b60405161028091906112e5565b60405180910390f35b6102a3600480360381019061029e91906113b4565b61089b565b005b6102bf60048036038101906102ba919061128a565b610939565b6040516102cc91906112e5565b60405180910390f35b6102ef60048036038101906102ea91906113e1565b610957565b005b61030b6004803603810190610306919061140e565b610a64565b604051610318919061130f565b60405180910390f35b610329610aeb565b604051610336919061145d565b60405180910390f35b610359600480360381019061035491906113e1565b610b11565b005b60606003805461036a906114a7565b80601f0160208091040260200160405190810160405280929190818152602001828054610396906114a7565b80156103e35780601f106103b8576101008083540402835291602001916103e3565b820191906000526020600020905b8154815290600101906020018083116103c657829003601f168201915b5050505050905090565b60006104016103fa610b78565b8484610b80565b6001905092915050565b6000600254905090565b6000610422848484610d4b565b6000600160008673ffffffffffffffffffffffffffffffffffffffff1673ffffffffffffffffffffffffffffffffffffffff168152602001908152602001600020600061046d610b78565b73ffffffffffffffffffffffffffffffffffffffff1673ffffffffffffffffffffffffffffffffffffffff168152602001908152602001600020549050828110156104ed576040517f08c379a00000000000000000000000000000000000000000000000000000000081526004016104e49061154b565b60405180910390fd5b610501856104f9610b78565b858403610b80565b60019150509392505050565b60006012905090565b60006105b8610523610b78565b848460016000610531610b78565b73ffffffffffffffffffffffffffffffffffffffff1673ffffffffffffffffffffffffffffffffffffffff16815260200190815260200160002060008873ffffffffffffffffffffffffffffffffffffffff1673ffffffffffffffffffffffffffffffffffffffff168152602001908152602001600020546105b3919061159a565b610b80565b6001905092915050565b60008060008373ffffffffffffffffffffffffffffffffffffffff1673ffffffffffffffffffffffffffffffffffffffff168152602001908152602001600020549050919050565b606060048054610619906114a7565b80601f0160208091040260200160405190810160405280929190818152602001828054610645906114a7565b80156106925780601f1061066757610100808354040283529160200191610692565b820191906000526020600020905b81548152906001019060200180831161067557829003601f168201915b5050505050905090565b600660009054906101000a900473ffffffffffffffffffffffffffffffffffffffff1673ffffffffffffffffffffffffffffffffffffffff166323b872dd3330655af3107a40006101ed866106f191906115f0565b6106fb9190611679565b6040518463ffffffff1660e01b8152600401610719939291906116aa565b602060405180830381600087803b15801561073357600080fd5b505af1158015610747573d6000803e3d6000fd5b505050506040513d601f19601f8201168201806040525081019061076b919061170d565b506107763382610fcc565b7f3c3284d117c92d0b1699230960384e794dcba184cc48ff114fe4fed20c9b0565336040516107a5919061145d565b60405180910390a150565b600080600160006107bf610b78565b73ffffffffffffffffffffffffffffffffffffffff1673ffffffffffffffffffffffffffffffffffffffff16815260200190815260200160002060008573ffffffffffffffffffffffffffffffffffffffff1673ffffffffffffffffffffffffffffffffffffffff1681526020019081526020016000205490508281101561087c576040517f08c379a0000000000000000000000000000000000000000000000000000000008152600401610873906117ac565b60405180910390fd5b610890610887610b78565b85858403610b80565b600191505092915050565b600560009054906101000a900473ffffffffffffffffffffffffffffffffffffffff1673ffffffffffffffffffffffffffffffffffffffff163373ffffffffffffffffffffffffffffffffffffffff16146108f557600080fd5b80600560006101000a81548173ffffffffffffffffffffffffffffffffffffffff021916908373ffffffffffffffffffffffffffffffffffffffff16021790555050565b600061094d610946610b78565b8484610d4b565b6001905092915050565b600560009054906101000a900473ffffffffffffffffffffffffffffffffffffffff1673ffffffffffffffffffffffffffffffffffffffff163373ffffffffffffffffffffffffffffffffffffffff16146109b157600080fd5b600660009054906101000a900473ffffffffffffffffffffffffffffffffffffffff1673ffffffffffffffffffffffffffffffffffffffff1663a9059cbb33836040518363ffffffff1660e01b8152600401610a0e9291906117cc565b602060405180830381600087803b158015610a2857600080fd5b505af1158015610a3c573d6000803e3d6000fd5b505050506040513d601f19601f82011682018060405250810190610a60919061170d565b5050565b6000600160008473ffffffffffffffffffffffffffffffffffffffff1673ffffffffffffffffffffffffffffffffffffffff16815260200190815260200160002060008373ffffffffffffffffffffffffffffffffffffffff1673ffffffffffffffffffffffffffffffffffffffff16815260200190815260200160002054905092915050565b600660009054906101000a900473ffffffffffffffffffffffffffffffffffffffff1681565b600560009054906101000a900473ffffffffffffffffffffffffffffffffffffffff1673ffffffffffffffffffffffffffffffffffffffff163373ffffffffffffffffffffffffffffffffffffffff1614610b6b57600080fd5b610b753382610fcc565b50565b600033905090565b600073ffffffffffffffffffffffffffffffffffffffff168373ffffffffffffffffffffffffffffffffffffffff161415610bf0576040517f08c379a0000000000000000000000000000000000000000000000000000000008152600401610be790611867565b60405180910390fd5b600073ffffffffffffffffffffffffffffffffffffffff168273ffffffffffffffffffffffffffffffffffffffff161415610c60576040517f08c379a0000000000000000000000000000000000000000000000000000000008152600401610c57906118f9565b60405180910390fd5b80600160008573ffffffffffffffffffffffffffffffffffffffff1673ffffffffffffffffffffffffffffffffffffffff16815260200190815260200160002060008473ffffffffffffffffffffffffffffffffffffffff1673ffffffffffffffffffffffffffffffffffffffff168152602001908152602001600020819055508173ffffffffffffffffffffffffffffffffffffffff168373ffffffffffffffffffffffffffffffffffffffff167f8c5be1e5ebec7d5bd14f71427d1e84f3dd0314c0f7b2291e5b200ac8c7c3b92583604051610d3e919061130f565b60405180910390a3505050565b600073ffffffffffffffffffffffffffffffffffffffff168373ffffffffffffffffffffffffffffffffffffffff161415610dbb576040517f08c379a0000000000000000000000000000000000000000000000000000000008152600401610db29061198b565b60405180910390fd5b600073ffffffffffffffffffffffffffffffffffffffff168273ffffffffffffffffffffffffffffffffffffffff161415610e2b576040517f08c379a0000000000000000000000000000000000000000000000000000000008152600401610e2290611a1d565b60405180910390fd5b610e3683838361112c565b60008060008573ffffffffffffffffffffffffffffffffffffffff1673ffffffffffffffffffffffffffffffffffffffff16815260200190815260200160002054905081811015610ebc576040517f08c379a0000000000000000000000000000000000000000000000000000000008152600401610eb390611aaf565b60405180910390fd5b8181036000808673ffffffffffffffffffffffffffffffffffffffff1673ffffffffffffffffffffffffffffffffffffffff16815260200190815260200160002081905550816000808573ffffffffffffffffffffffffffffffffffffffff1673ffffffffffffffffffffffffffffffffffffffff1681526020019081526020016000206000828254610f4f919061159a565b925050819055508273ffffffffffffffffffffffffffffffffffffffff168473ffffffffffffffffffffffffffffffffffffffff167fddf252ad1be2c89b69c2b068fc378daa952ba7f163c4a11628f55a4df523b3ef84604051610fb3919061130f565b60405180910390a3610fc6848484611131565b50505050565b600073ffffffffffffffffffffffffffffffffffffffff168273ffffffffffffffffffffffffffffffffffffffff16141561103c576040517f08c379a000000000000000000000000000000000000000000000000000000000815260040161103390611b1b565b60405180910390fd5b6110486000838361112c565b806002600082825461105a919061159a565b92505081905550806000808473ffffffffffffffffffffffffffffffffffffffff1673ffffffffffffffffffffffffffffffffffffffff16815260200190815260200160002060008282546110af919061159a565b925050819055508173ffffffffffffffffffffffffffffffffffffffff16600073ffffffffffffffffffffffffffffffffffffffff167fddf252ad1be2c89b69c2b068fc378daa952ba7f163c4a11628f55a4df523b3ef83604051611114919061130f565b60405180910390a361112860008383611131565b5050565b505050565b505050565b600081519050919050565b600082825260208201905092915050565b60005b83811015611170578082015181840152602081019050611155565b8381111561117f576000848401525b50505050565b6000601f19601f8301169050919050565b60006111a182611136565b6111ab8185611141565b93506111bb818560208601611152565b6111c481611185565b840191505092915050565b600060208201905081810360008301526111e98184611196565b905092915050565b600080fd5b600073ffffffffffffffffffffffffffffffffffffffff82169050919050565b6000611221826111f6565b9050919050565b61123181611216565b811461123c57600080fd5b50565b60008135905061124e81611228565b92915050565b6000819050919050565b61126781611254565b811461127257600080fd5b50565b6000813590506112848161125e565b92915050565b600080604083850312156112a1576112a06111f1565b5b60006112af8582860161123f565b92505060206112c085828601611275565b9150509250929050565b60008115159050919050565b6112df816112ca565b82525050565b60006020820190506112fa60008301846112d6565b92915050565b61130981611254565b82525050565b60006020820190506113246000830184611300565b92915050565b600080600060608486031215611343576113426111f1565b5b60006113518682870161123f565b93505060206113628682870161123f565b925050604061137386828701611275565b9150509250925092565b600060ff82169050919050565b6113938161137d565b82525050565b60006020820190506113ae600083018461138a565b92915050565b6000602082840312156113ca576113c96111f1565b5b60006113d88482850161123f565b91505092915050565b6000602082840312156113f7576113f66111f1565b5b600061140584828501611275565b91505092915050565b60008060408385031215611425576114246111f1565b5b60006114338582860161123f565b92505060206114448582860161123f565b9150509250929050565b61145781611216565b82525050565b6000602082019050611472600083018461144e565b92915050565b7f4e487b7100000000000000000000000000000000000000000000000000000000600052602260045260246000fd5b600060028204905060018216806114bf57607f821691505b602082108114156114d3576114d2611478565b5b50919050565b7f45524332303a207472616e7366657220616d6f756e742065786365656473206160008201527f6c6c6f77616e6365000000000000000000000000000000000000000000000000602082015250565b6000611535602883611141565b9150611540826114d9565b604082019050919050565b6000602082019050818103600083015261156481611528565b9050919050565b7f4e487b7100000000000000000000000000000000000000000000000000000000600052601160045260246000fd5b60006115a582611254565b91506115b083611254565b9250827fffffffffffffffffffffffffffffffffffffffffffffffffffffffffffffffff038211156115e5576115e461156b565b5b828201905092915050565b60006115fb82611254565b915061160683611254565b9250817fffffffffffffffffffffffffffffffffffffffffffffffffffffffffffffffff048311821515161561163f5761163e61156b565b5b828202905092915050565b7f4e487b7100000000000000000000000000000000000000000000000000000000600052601260045260246000fd5b600061168482611254565b915061168f83611254565b92508261169f5761169e61164a565b5b828204905092915050565b60006060820190506116bf600083018661144e565b6116cc602083018561144e565b6116d96040830184611300565b949350505050565b6116ea816112ca565b81146116f557600080fd5b50565b600081519050611707816116e1565b92915050565b600060208284031215611723576117226111f1565b5b6000611731848285016116f8565b91505092915050565b7f45524332303a2064656372656173656420616c6c6f77616e63652062656c6f7760008201527f207a65726f000000000000000000000000000000000000000000000000000000602082015250565b6000611796602583611141565b91506117a18261173a565b604082019050919050565b600060208201905081810360008301526117c581611789565b9050919050565b60006040820190506117e1600083018561144e565b6117ee6020830184611300565b9392505050565b7f45524332303a20617070726f76652066726f6d20746865207a65726f2061646460008201527f7265737300000000000000000000000000000000000000000000000000000000602082015250565b6000611851602483611141565b915061185c826117f5565b604082019050919050565b6000602082019050818103600083015261188081611844565b9050919050565b7f45524332303a20617070726f766520746f20746865207a65726f20616464726560008201527f7373000000000000000000000000000000000000000000000000000000000000602082015250565b60006118e3602283611141565b91506118ee82611887565b604082019050919050565b60006020820190508181036000830152611912816118d6565b9050919050565b7f45524332303a207472616e736665722066726f6d20746865207a65726f20616460008201527f6472657373000000000000000000000000000000000000000000000000000000602082015250565b6000611975602583611141565b915061198082611919565b604082019050919050565b600060208201905081810360008301526119a481611968565b9050919050565b7f45524332303a207472616e7366657220746f20746865207a65726f206164647260008201527f6573730000000000000000000000000000000000000000000000000000000000602082015250565b6000611a07602383611141565b9150611a12826119ab565b604082019050919050565b60006020820190508181036000830152611a36816119fa565b9050919050565b7f45524332303a207472616e7366657220616d6f756e742065786365656473206260008201527f616c616e63650000000000000000000000000000000000000000000000000000602082015250565b6000611a99602683611141565b9150611aa482611a3d565b604082019050919050565b60006020820190508181036000830152611ac881611a8c565b9050919050565b7f45524332303a206d696e7420746f20746865207a65726f206164647265737300600082015250565b6000611b05601f83611141565b9150611b1082611acf565b602082019050919050565b60006020820190508181036000830152611b3481611af8565b905091905056fea26469706673582212201ca8fc97a6398a52c482a48101289127af6fbf32ae51906927ebc0b9d7a945d964736f6c6343000809003352654e752052656e657761626c6520456e65726779204365727469666963617465",
  "linkReferences": {},
  "deployedLinkReferences": {}
}